:100000000C9463000C94B4040C948D040C948B0039
:100010000C948B000C948B000C948B000C948B0034
:100020000C948B000C948B000C948B000C948B0024
:100030000C948B000C948B000C948B000C948B0014
:100040000C9443040C948B000C948B000C948B0048
:100050000C948B000C948B000C948B000C948B00F4
:100060000C94B0050C948B000000000025002800C3
:100070002B000000000023002600290000000008DB
:10008000000201000003040700000000000000005F
:1000900000000000240027002A00010204081020AC
:1000A000408001020408102001020408102004040A
:1000B0000404040404040202020202020303030310
:1000C0000303A810B80A11241FBECFEFD8E0DEBF8B
:1000D000CDBF11E0A0E0B1E0E4E5FBE202C0059095
:1000E0000D92A634B107D9F722E0A6E4B1E001C031
:1000F0001D92AB36B207E1F710E0C2E6D0E004C0D3
:100100002197FE010E948213C136D107C9F70E94D0
:10011000C40A0C949D150C9400000895CF92DF92B0
:10012000EF92FF920F931F93CF93DF936C017A01AD
:100130008B01C0E0D0E0CE15DF0589F0D8016D91CC
:100140008D01D601ED91FC910190F081E02DC60169
:100150000995892B11F47E0102C02196ECCFC701CD
:10016000DF91CF911F910F91FF90EF90DF90CF9093
:100170000895833081F028F4813099F08230A1F025
:1001800008958730A9F08830B9F08430D1F4809197
:1001900080008F7D03C0809180008F7780938000E6
:1001A000089584B58F7702C084B58F7D84BD08958E
:1001B0008091B0008F7703C08091B0008F7D8093D5
:1001C000B00008953FB7F8948091980190919901FB
:1001D000A0919A01B0919B0126B5A89B05C02F3F25
:1001E00019F00196A11DB11D3FBFBA2FA92F982F5D
:1001F0008827820F911DA11DB11DBC01CD0142E0D8
:10020000660F771F881F991F4A95D1F708950895A3
:100210000895CF93DF931F92CDB7DEB76983DC01DA
:10022000ED91FC910280F381E02D41E050E0BE01B0
:100230006F5F7F4F09950F90DF91CF91089585ED06
:100240008093BC008091BC0084FDFCCF1092F30130
:10025000089540916E01262F30E0240F311D213288
:100260003105DCF42091F3012430C9F4FC0180E075
:1002700090E0861758F430916E012191DC01A45B67
:10028000BE4FA30FB11D2C930196F3CF80916E0149
:10029000680F60936E0180E0089581E0089582E028
:1002A0000895E0914A01F0914B01309729F01092A6
:1002B000F5011092170209940895AC01E0914801EC
:1002C000F09149013097E1F09091AC018091AB0140
:1002D0009817B0F090E0292F30E02617370754F434
:1002E000DA01A20FB31F8C91D901A355BE4F8C9395
:1002F0009F5FF1CF1092AC016093AB01CB010994E9
:1003000008950895E091AC018091AB01E81730F4B5
:10031000F0E0E355FE4F808190E008958FEF9FEF6E
:1003200008959091AC018091AB01981750F4E92F9A
:10033000F0E0E355FE4F208130E09F5F9093AC01E9
:1003400002C02FEF3FEFC90108958091AB0190E00B
:100350002091AC01821B91090895CF92DF92EF9218
:10036000FF920F931F93CF93DF937C01262F972F3C
:100370008A018091F401882391F0C62FD72F6E0156
:10038000C40ED51ECC15DD0571F06991D701ED9134
:10039000FC910190F081E02DC7010995F3CF642F06
:1003A000822F0E942901C801DF91CF911F910F91E7
:1003B000FF90EF90DF90CF900895CF93DF931F923F
:1003C000CDB7DEB769832091F4012223D1F02091CB
:1003D0001702203240F021E030E0FC013383228319
:1003E00080E090E015C08091F501E82FF0E0EA5040
:1003F000FE4F998190838F5F8093F5018093170260
:1004000005C061E0CE0101960E94290181E090E0E3
:100410000F90DF91CF910895089580E090E00895C6
:100420000E947F15FC01248135816217730748F40F
:1004300080819181009729F0FC01E60FF71F8081F0
:10044000089580E00895CF9380914701882309F4AF
:1004500060C08130D1F4C0E080916002C81768F4B8
:100460006C2F70E081E692E00E941202082E000CD0
:10047000990B0E94AC09CF5FEFCF1092470180919A
:100480009E018D7F80939E014BC0823019F4609154
:100490000F0127C0893019F460910E0122C083300A
:1004A00019F460915E021DC0843019F460916002FD
:1004B00018C0853019F460915B0213C0863019F4BE
:1004C00060915C020EC0873019F460915D0209C032
:1004D000883019F460915A0204C0803139F4609177
:1004E0000D0184E392E00E94DD0110C0813189F4A6
:1004F000E0913402F09135020280F381E02D45E075
:1005000050E060E071E084E392E0099510924701C9
:1005100007C060919E0184E392E0CF910C94DD01CD
:10052000CF9108950F931F93CF93DF93EC018881B0
:100530009981009729F02A813B812617370788F493
:100540008B016F5F7F4F0E94B514009761F0998314
:1005500088831B830A832C813D81232B11F4FC01AA
:10056000108281E001C080E0DF91CF911F910F9157
:100570000895EF92FF920F931F93CF93DF9300D0D4
:10058000CDB7DEB78C0169831A82FC01E480F58067
:10059000FFEFEF1AFF0AB7010E949202882381F051
:1005A000F8012081318184819581BE016F5F7F4F89
:1005B000820F931F0E949615F801F582E48281E074
:1005C0000F900F90DF91CF911F910F91FF90EF90BF
:1005D0000895CF93DF93EC0188819981009711F002
:1005E0000E941D14198218821D821C821B821A828D
:1005F000DF91CF910895EF92FF920F931F93CF93C6
:10060000DF93EC017B018A01BA010E949202811101
:1006100004C0CE010E94E90207C01D830C83B7010C
:10062000888199810E949615CE01DF91CF911F910B
:100630000F91FF90EF900895CF93DF93EC01FB01B2
:100640008617970761F0608171816115710529F046
:10065000448155810E94FB0202C00E94E902CE0142
:10066000DF91CF91089590919E019E7F90939E017E
:10067000E0E4F2E082836583BA0187E492E00E94BD
:100680001C0381E080939C010895FC01808191818D
:100690000C941D14FC0111821082138212821582A7
:1006A00014820C941C03FC011182108213821282AA
:1006B000158214826115710551F0FB010190002033
:1006C000E9F73197AF01461B570B0C94FB020895D5
:1006D000CF93DF93282F30E0F901E458FF4F849146
:1006E000F901E656FF4FD491F901E255FF4FC4914D
:1006F000CC2391F081110E94B900EC2FF0E0EE0FB5
:10070000FF1FEE58FF4FA591B491EC91ED2381E0CE
:1007100090E021F480E002C080E090E0DF91CF9192
:1007200008951F93CF93DF93282F30E0F901E45809
:10073000FF4F8491F901E656FF4FD491F901E2553C
:10074000FF4FC491CC23C9F0162F81110E94B9002C
:10075000EC2FF0E0EE0FFF1FE859FF4FA591B49189
:100760008FB7F894111105C09C91ED2FE095E92306
:1007700002C0EC91ED2BEC938FBFDF91CF911F91D5
:100780000895CF93DF9390E0FC01E656FF4F24914C
:10079000FC01E255FF4F8491882361F190E0880FBE
:1007A000991FFC01E057FF4FC591D491FC01E85916
:1007B000FF4FA591B491611109C09FB7F89488814A
:1007C000209582238883EC912E230BC0623061F444
:1007D0009FB7F8943881822F809583238883EC918A
:1007E0002E2B2C939FBF06C08FB7F894E8812E2B39
:1007F00028838FBFDF91CF9108958F929F92AF9200
:10080000BF92CF92DF92EF92FF926B017C010E9428
:10081000E2004B015C01C114D104E104F104F1F0E8
:100820000E94E200DC01CB0188199909AA09BB09E1
:10083000883E9340A105B10570F321E0C21AD108AA
:10084000E108F10888EE880E83E0981EA11CB11C17
:10085000C114D104E104F10419F7DDCFFF90EF904A
:10086000DF90CF90BF90AF909F908F9008952FB75B
:10087000F894609194017091950180919601909106
:1008800097012FBF08951F920F920FB60F92112458
:100890002F933F938F939F93AF93BF938091940136
:1008A00090919501A0919601B0919701309193019B
:1008B00023E0230F2D3720F40196A11DB11D05C0A3
:1008C00026E8230F0296A11DB11D2093930180936A
:1008D000940190939501A0939601B0939701809114
:1008E000980190919901A0919A01B0919B01019674
:1008F000A11DB11D8093980190939901A0939A0135
:10090000B0939B01BF91AF919F918F913F912F9198
:100910000F900FBE0F901F9018951F920F920FB659
:100920000F9211242F933F934F935F936F937F9375
:100930008F939F93AF93BF93EF93FF93E091090140
:10094000F0910A010995FF91EF91BF91AF919F91AD
:100950008F917F916F915F914F913F912F910F9068
:100960000FBE0F901F9018951F920F920FB60F9207
:1009700011242F933F934F935F936F937F938F93A4
:100980009F93AF93BF93EF93FF93E0910701F09193
:1009900008010995FF91EF91BF91AF919F918F91C0
:1009A0007F916F915F914F913F912F910F900FBE6B
:1009B0000F901F901895EF92FF921F93CF93DF93A4
:1009C0001F92CDB7DEB77C01162F60E0FC01868553
:1009D00049830E949103F701948585859CBD8DBD57
:1009E0001EBD000049810DB407FEFDCF8EB54EBD82
:1009F00000000DB407FEFDCF1EB561E0F70186854E
:100A00000E949103812F0F90DF91CF911F91FF9052
:100A1000EF9008956F7740E00C94DB04EF92FF9223
:100A20001F93CF93DF931F92CDB7DEB77C01DC011C
:100A3000ED91FC910084F185E02D0995892B99F0C9
:100A40006DE0C7010E940A05482F60E0C701498395
:100A50000E940A05182F49816DE8C7010E94DB0436
:100A6000812F90E002C08FEF9FEF0F90DF91CF9129
:100A70001F91FF90EF900895CF93DF93EC01E881F1
:100A8000F9810084F185E02D0995892B59F08E8933
:100A90009F8901969F8B8E8B60E0CE010E940A0594
:100AA00090E002C08FEF9FEFDF91CF910895CF9339
:100AB000DF93EC0163E10E940A05282F30E08E8964
:100AC0009F89A901481B590BCA01DF91CF91089555
:100AD0008F929F92AF92BF92CF92DF92FF920F932D
:100AE0001F93CF93DF931F92CDB7DEB76C01B62E65
:100AF0004A0162E279830E940A05F82E90E09C0187
:100B0000280D391D79812F3F310531F028F02FEF65
:100B100030E04901881A990A0B2D172F5801A80CAB
:100B2000B91C0A151B0541F0F80141918F0160E8DD
:100B3000C6010E94DB04F5CF482D4F0D62EAC601C5
:100B40000E94DB04C4010F90DF91CF911F910F91A0
:100B5000FF90DF90CF90BF90AF909F908F900895BF
:100B60001F920F920FB60F9211242F933F934F9322
:100B70005F936F937F938F939F93AF93BF93EF9305
:100B8000FF938091B900887F803609F49CC068F596
:100B9000883209F45BC090F4803109F454C038F411
:100BA000882309F4F6C0883009F44DC0F6C08831B6
:100BB00009F44CC0803209F45DC0EFC0803409F400
:100BC00068C048F4803309F455C0883309F0E5C0A3
:100BD0008093F101D8C0803509F44FC0883509F4FD
:100BE0005DC0883409F0D9C0D6C0883909F4C7C0BF
:100BF000A8F4883709F467C038F4883609F463C06C
:100C0000803709F460C0C9C0883809F4B8C0803999
:100C100009F45FC0803809F0C0C05BC0803B09F4B4
:100C200086C038F4803A09F466C0883A09F47FC077
:100C3000B4C0803C09F4A7C0883C09F4A4C0883B38
:100C400009F48AC0AAC08091CE0110C09091F00131
:100C50008091EF01981770F5E091F00181E08E0F1F
:100C60008093F001F0E0E153FE4F80818093BB0060
:100C700085EC86C08093F1018EC0E091F00181E0A7
:100C80008E0F8093F0018091BB00F0E0E153FE4FA6
:100C900080839091F0018091EF016EC0E091F001AE
:100CA00081E08E0F8093F0018091BB00F0E0E15372
:100CB000FE4F80838091F20181116DC081E08093AD
:100CC000CD0184EA61C083E08093F3011092920128
:100CD000CFCF80919201803208F051C0E091920113
:100CE00081E08E0F809392018091BB00F0E0EE587E
:100CF000FE4F8083BDCF85EC8093BC001092F30142
:100D000080919201803230F4E0919201F0E0EE584F
:100D1000FE4F10826091920170E0E0917001F091BD
:100D2000710182E791E009951092920136C084E04A
:100D30008093F30110926F0110926E01E0916C01AB
:100D4000F0916D01099580916E01811105C081E0DE
:100D500080936E0110924C01E0916F0181E08E0F43
:100D600080936F01F0E0E45BFE4F80818093BB00D5
:100D700090916F0180916E01981708F479CF85E802
:100D80008093BC000AC085EC8093BC001092F301F4
:100D900004C01092F1010E941F01FF91EF91BF91D9
:100DA000AF919F918F917F916F915F914F913F9103
:100DB0002F910F900FBE0F901F901895ECEBF0E065
:100DC00080818A7B808360E082E10E94910360E001
:100DD00083E10C9491031092F30181E08093F2017E
:100DE0001092CD0161E082E10E94910361E083E114
:100DF0000E949103E9EBF0E080818E7F8083808107
:100E00008D7F808388E48093B80085E48093BC0064
:100E100008950C94AB120C94A3120E94DE0684E099
:100E20000E946803019721F480910601880F01C098
:100E30008CE68093BA0081E591E090936D018093F8
:100E40006C018DE591E09093710180937001109297
:100E5000AC011092AB011092F501109217020E94A2
:100E6000EB068EE397E0909349018093480183E27B
:100E700092E090934B0180934A010895EF92FF9284
:100E80000F931F93CF93DF93CDB7DEB72C970FB699
:100E9000F894DEBF0FBECDBF84E392E00E949101C3
:100EA000803201F59091AB018091AC01981709F463
:100EB000CAC184E392E00E9491018093060180916F
:100EC0000601883008F4BFC180910601883708F018
:100ED000BAC16091060181E090E00E9409070E947A
:100EE0000D07B1C1813019F410924701ACC18230B5
:100EF000C1F58091AB0190E02091AC01821B91097A
:100F000002970CF4A0C184E392E00E949101182F93
:100F100064E471E0CE0101960E9453039091AB010D
:100F20008091AC01981751F084E392E00E94910106
:100F3000682FCE0101960E94B902F0CFBE016F5F0B
:100F40007F4FCE0107960E944A03AE01495F5F4F73
:100F500060E0812F0E943303CE0107960E94450373
:100F600060C0833009F062C08091AB0190E02091B5
:100F7000AC01821B910902970CF465C184E392E0F5
:100F80000E949101182F64E471E0CE0101960E9445
:100F900053039091AB018091AC01981751F084E319
:100FA00092E00E949101682FCE0101960E94B90241
:100FB000F0CFBE016F5F7F4FCE0107960E944A03BC
:100FC000AE01495F5F4F61E0812F0E943303CE0184
:100FD00007960E94450310929D01ED80FE8000E07F
:100FE00010E00E151F0589F0B801CE0101960E9490
:100FF000120220919D01082E000C990B820F911D69
:1010000080939D010F5F1F4FECCF80919D018E3F1C
:1010100028F480919D018E5F80939D0181E08093F3
:101020009F01CE0101960E9445030DC1803309F056
:101030004EC08091AB0190E02091AC01821B9109E0
:1010400002970CF400C164E471E0CE0101960E94A5
:1010500053039091AB018091AC01981751F084E358
:1010600092E00E949101682FCE0101960E94B90280
:10107000F0CFBE016F5F7F4FCE0107960E944A03FB
:10108000AE01495F5F4F61E080910D010E94330323
:10109000CE0107960E94450310929D01ED80FE80CF
:1010A00000E010E00E151F0509F4AFCFB801CE0126
:1010B00001960E94120220919D01082E000C990BAE
:1010C000820F911D80939D010F5F1F4FEBCF8430E6
:1010D00089F49091AB018091AC01981709F4B3C0E9
:1010E00084E392E00E94910180931001682F85E0D3
:1010F00090E012C0823199F49091AB018091AC01E3
:10110000981709F4A0C084E392E00E9491018093B3
:101110000D01682F87E090E00E94090794C0833199
:1011200011F480E178C0853011F481E074C086301C
:10113000E9F49091AB018091AC01981709F483C058
:1011400084E392E00E9491019AEF980F973008F0A3
:101150007AC080930C01682F84E090E00E94090718
:1011600080910C0190E00E94C4096DC08730D1F4D9
:101170009091AB018091AC01981709F464C084E3AD
:1011800092E00E94910180930E01682F83E090E02D
:101190000E94090740910E0169EB88E192E00E94EC
:1011A000DB0451C08830A1F49091AB018091AC0177
:1011B000981709F448C084E392E00E9491018F3FA0
:1011C00009F441C080930F01682F82E090E0A4CF22
:1011D000893011F482E01FC08A3011F483E01BC013
:1011E0008B3011F484E017C08C3011F485E013C00B
:1011F0008D3011F486E00FC0813111F489E00BC00D
:101200008E3011F487E007C08F3011F488E003C0FE
:10121000853121F481E18093470115C0803199F433
:1012200084E392E00E949101182F823108F011E1CD
:1012300010930B01612F86E090E00E940907812F37
:1012400090E00E94B1092C960FB6F894DEBF0FBE55
:10125000CDBFDF91CF911F910F91FF90EF90089537
:10126000FF920F931F93CF93DF93F82E062FEA017F
:1012700061E080E10E94910341E861E888E192E049
:101280000E94DB040E94000A40E06DE888E192E0E1
:101290000E94DB0440E062EA88E192E00E94DB0405
:1012A0006F2D88E192E00E94090160910F0188E1B1
:1012B00092E00E9409016091460188E192E00E945B
:1012C0000901602F88E192E00E9409016C8188E1A8
:1012D00092E00E940901E0911802F09119024C81FC
:1012E0005D81688179810280F381E02D88E192E05F
:1012F000099543E861E888E192E00E94DB0462E13D
:1013000088E192E00E940A0583FFF9CF48E062E994
:1013100088E192E00E94DB041091460110934D0297
:1013200080910F0180934E02F0924F028C81809346
:101330005302BE0184E592E00E941C030093520216
:101340001F5F1093460160E080E1DF91CF911F9114
:101350000F91FF900C949103682F84E392E00C941A
:10136000DD018230910534F0823191052CF081E16C
:1013700090E002C082E090E08250482F406869E827
:1013800088E192E00C94DB04CF93DF93EC0186308C
:1013900091052CF08D3091058CF4069789F445EC7D
:1013A00061EB88E192E00E94DB044CE067EB88E1AE
:1013B00092E00E94DB04C6E0D0E00EC0CCE0D0E0BA
:1013C00043EC61EB88E192E00E94DB044AE067EBCA
:1013D00088E192E00E94DB046EE188E192E00E94E5
:1013E0000A0594E0CC0FDD1F9A95E1F78F704C2F22
:1013F000482B6EE988E192E0DF91CF910C94DB04F9
:1014000010923102109230026DE188E192E00E9468
:101410000A05482F4E7F6DE988E192E00C94DB04C9
:10142000382F2091170290911602213208F049C0FE
:101430008091F3018111FCCF42E04093F30130939E
:10144000F2013FEF3093F1011092F0012093EF0190
:10145000A6EFB1E04FEC51E0FA013E2F341B3217FA
:1014600018F43D913193F9CF1092CE012091CE0125
:10147000990F922B9093CE019091CD01913061F410
:101480001092CD019091CE019093BB009091BC0041
:1014900093FDF8CF95EC01C095EE9093BC00909130
:1014A000F3019230E1F39091F1019F3F79F0809147
:1014B000F101803241F08091F101803331F084E01C
:1014C00005C081E003C082E001C083E01092F50115
:1014D000109217021092F40108959091F301911166
:1014E000FCCF613208F060E291E09093F3019093B9
:1014F000F2012FEF2093F1011092F001260F2093BB
:10150000EF019093CE019091CE01880F892B8093AB
:10151000CE018091CD01813061F41092CD01809196
:10152000CE018093BB008091BC0083FDF8CF85EC99
:1015300001C085EE8093BC008091F3018130E1F31E
:101540008091F001861710F46091F001AFECB1E0EA
:101550002DEA31E0F9018E2F821B861718F48D9148
:101560008193F9CF1092AC016093AB01862F08955F
:1015700087E492E00E94450384E592E00E944503DF
:1015800081E692E00C944503CF93DF93CDB7DEB7AD
:101590006D970FB6F894DEBF0FBECDBF789484B5BB
:1015A000826084BD84B5816084BD85B5826085BD5F
:1015B00085B5816085BD80916E00816080936E00ED
:1015C00010928100809181008260809381008091DF
:1015D0008100816080938100809180008160809390
:1015E00080008091B10084608093B1008091B00050
:1015F00081608093B00080917A00846080937A004B
:1016000080917A00826080937A0080917A00816074
:1016100080937A0080917A00806880937A0010929B
:10162000C10062E08FE00E94C10362E084E00E949A
:10163000C10361E080E10E94C10361E081E10E9499
:10164000C10382E090E00E940B078F3F51F565E3F4
:1016500081E090E00E94090760910F0182E090E034
:101660000E94090760910E0183E090E00E94090743
:1016700060910C0184E090E00E94090760911001E4
:1016800085E090E00E94090760910B0186E090E000
:101690000E94090760910D0187E090E00E94090710
:1016A00020C080930F0183E090E00E940B0780939D
:1016B0000E0184E090E00E940B0780930C0185E00E
:1016C00090E00E940B078093100186E090E00E945A
:1016D0000B0780930B0187E090E00E940B0780933B
:1016E0000D018AE090E0909327028093260289E022
:1016F00090E0909329028093280283E090E09093F9
:101700002B0280932A0261E08AE00E94C10361E01B
:10171000809128020E94C10360E0809128020E940B
:1017200091036AE070E080E090E00E94FD0361E0D8
:10173000809128020E9491036AE070E080E090E0CE
:101740000E94FD0361E0809126020E9491031FB771
:10175000F8948091A001811127C0E8EBF0E084911A
:10176000E4EAF0E09491E82FF0E0EE0FFF1FE0577D
:10177000FF4FA591B491EC91E92321F461E08AE057
:101780000E94910361E08AE00E94C1038CB58061F0
:101790008CBD8CB580648CBD61E08DE00E94C1037E
:1017A00061E08BE00E94C1038091A0018F5F809374
:1017B000A0011FBF62E488E192E00E940A05823125
:1017C00009F077C040E861E888E192E00E94DB041C
:1017D00080EC9AEC90932D0280932C0244EE66E804
:1017E00088E192E00E94DB0440EC67E888E192E047
:1017F0000E94DB0440E068E888E192E00E94DB049C
:1018000040E06EE888E192E00E94DB0440E06FE88F
:1018100088E192E00E94DB046CE088E192E00E94A3
:101820000A05482F43606CE888E192E00E94DB04DF
:1018300044E066EA88E192E00E94DB0481E190E006
:101840000E94B10941E861E888E192E00E94DB046E
:1018500061E081E10E94910340910E0169EB88E112
:1018600092E00E94DB0480910C0190E00E94C40988
:1018700080910B0190E00E94B1096EE188E192E055
:101880000E940A05482F44606EE988E192E00E94B8
:10189000DB040E940D0780919E01816080939E0170
:1018A0008E010F5F1F4F9FEE292E312C412C512CA2
:1018B00094C061E081E10E94910364EF71E080E0F7
:1018C00090E00E94FD0360E081E10E94910364EFDB
:1018D00071E080E090E00E94FD03EBCF80919E01DB
:1018E00082FD9AC080919E0182FF21C00E94370430
:1018F000C090A301D090A401E090A501F090A601B2
:1019000020911001E8EEF3E02E9FA0012F9F500DD3
:1019100011244A01550FAA08BB08C80CD91CEA1C9F
:10192000FB1C6C157D058E059F0508F4E2C38FE056
:101930000E946803892B09F038C28091A10190911F
:10194000A20101968938F3E19F0708F0A8C090939F
:10195000A2018093A10180919C018823B1F067E4EA
:1019600072E0C8010E944A03A8016091450280917B
:1019700042020E943009C8010E94450310929C0156
:1019800080919E01816080939E0162E188E192E0F6
:101990000E940A05F82E0E94000A4F2D62E988E194
:1019A00092E00E94DB04F6FC05C261E088E192E06F
:1019B0000E940A05863861F040E06DE888E192E017
:1019C0000E94DB0446E861E888E192E00E94DB04C3
:1019D000E0E0F0E0309709F0099580919F018823BD
:1019E00009F47CCF80919E01846080939E010E94C7
:1019F00037046093A7017093A8018093A901909385
:101A0000AA016093A3017093A4018093A501909310
:101A1000A60110929F0162CF0E943704C090A301DB
:101A2000D090A401E090A501F090A60120911001B2
:101A3000E8EEF3E02E9FA0012F9F500D11244A01E4
:101A4000550FAA08BB08C80CD91CEA1CFB1CC616FB
:101A5000D706E806F90608F045CF80919E018B7FF6
:101A600080939E0180919E01816080939E01809170
:101A70009E01886080939E0110929D011092A301A7
:101A80001092A4011092A5011092A6011092A70134
:101A90001092A8011092A9011092AA0148CF1092A9
:101AA000A2011092A10161E080E10E9491030E94D5
:101AB000DE061092AC011092AB011092F50110926B
:101AC00017020E94EB066CE288E192E00E940A0590
:101AD000682F70E080E090E0611571058105910547
:101AE00011F00E9441110E943C112EEF30E040E0C5
:101AF00050E00E94B9124B015C012FEF821A920A4A
:101B0000A20AB20A8C8E0E943C11A20191010E948D
:101B1000B91277247394760E0E943C11A2019101B0
:101B20000E94B912FF24F394F60E64E471E0C80138
:101B30000E9453037F100AC00E943C11A201910130
:101B40000E94B912FF24F394F60EF4CF88E0C82E59
:101B5000D12C66246394EC2C6092F401C09216029E
:101B60001092F5011092170285E190E00E94AC09F5
:101B700080E00E94100A65E070E0C6010E946D0AD4
:101B80009091AB018091AC01981749F084E392E009
:101B90000E949101682FC8010E94B902F1CF8D8186
:101BA0009E81892B69F06FE371E089819A810E949F
:101BB0008D15892B29F466246394CE2CD12C2EC04C
:101BC00040E050E064E471E0C8010E94FB028FEF46
:101BD000C81AD80A9FE7C916D10409F0BCCFE12C76
:101BE000EACFEC8D8E17D1F16092F401E0921602EB
:101BF0001092F5011092170287E090E00E94AC0964
:101C00006C8D84E392E00E94DD0181E00E94100A65
:101C100068EC70E080E090E00E94FD036092F401C7
:101C2000E09216021092F5011092170281E190E005
:101C30000E94AC0980E00E94100A61E070E0C601D9
:101C40000E946D0A80E02091AB019091AC012917B0
:101C500041F284E392E00E949101F5CF66246394FF
:101C60006092F401E09216021092F50110921702B0
:101C700089E090E00E94AC0980E00E94100A61E0D7
:101C800070E0C6010E946D0A80E02091AB01909146
:101C9000AC01291729F084E392E00E949101F5CF6D
:101CA0008F15D9F06092F401E09216021092F501BE
:101CB0001092170288E090E00E94AC096F2D84E337
:101CC00092E00E94DD0181E00E94100A68EC70E061
:101CD00080E090E00E94FD03C3CF6624639460928D
:101CE000F401E09216021092F5011092170283E1BE
:101CF00090E00E94AC0980E00E94100A61E070E070
:101D0000C6010E946D0A20E09091AB018091AC0168
:101D1000981731F084E392E00E949101282FF4CFCC
:101D20002715D9F06092F401E09216021092F501A5
:101D30001092170282E190E00E94AC09672D84E3C3
:101D400092E00E94DD0181E00E94100A68EC70E0E0
:101D500080E090E00E94FD03C2CF80920E01682DCA
:101D600083E090E02D8F0E94090740910E0169EBFE
:101D700088E192E00E94DB042D8D20930F01622FF9
:101D800082E090E00E940907F0920D016F2D87E03C
:101D900090E00E94090760E080E10E9491030E94A8
:101DA0000D07C8010E944503D6CD1092A2011092E2
:101DB000A101D1CDF5FCF9CD10922F0210922E0287
:101DC0008091300290913102892B11F062E201C0C2
:101DD00063E188E192E00E940A05E82EF12C60E1BF
:101DE00088E192E00E940A05482F6DE888E192E0C0
:101DF0000E94DB0441E861E888E192E00E94DB0494
:101E0000EF2809F4E5CD61E080E10E94910388E1CB
:101E100092E00E943C057C0188E192E00E943C0532
:101E2000982E88E192E00E943C05782E88E192E0AD
:101E30000E943C05882E88E192E00E943C055C01EE
:101E400064E471E0CE0146960E94530388E192E07B
:101E50000E945705892B51F088E192E00E943C05D1
:101E6000682FCE0146960E94B902F0CF60E080E173
:101E70000E9491036501DD248A8D9B8DC816D906C9
:101E800009F032C180910F0190E0E816F90629F0BF
:101E9000FFEFEF16F10409F027C170925A029092F9
:101EA0005B02E0925C026BE188E192E00E940A052D
:101EB000682F880F770B880B990B0E94861120E002
:101EC00030E040E85EE30E94E5110E945313609306
:101ED0005D026AE188E192E00E940A05E82EF12C99
:101EE00060912C0270912D02072E000C880B990B2B
:101EF0000E94861124E832EF4EE45EE40E947F11D6
:101F000087FD03C08DE990E002C084EA90E0E81A02
:101F1000F90AE0925E02A0926002BE016A5E7F4F03
:101F200081E692E00E941C0380925F0280919E01F4
:101F300082FF35C080919D01881231C010929D01B1
:101F40001092A3011092A4011092A5011092A60173
:101F50001092A7011092A8011092A9011092AA0153
:101F600080919E018B7F80939E0180919E01816074
:101F700080939E0180919E01877F80939E0160E007
:101F800070E0CE0146960E9412028093500261E0FA
:101F900070E0CE0146960E9412028093510221E029
:101FA00082129DC064E471E0CE0140960E9453030A
:101FB000E12CF12CB12CEC14FD0451F0B701CE0151
:101FC00046960E941202B80E8FEFE81AF80AF3CF75
:101FD000DB2C9DEF9B1510F0D394D39480915D0280
:101FE0001B861A861D861C861F861E864AE0B8013F
:101FF00090E00E945511F80101900020E9F7319717
:10200000AF01401B510BB801CE010A960E94FB02A2
:10201000888999890097A9F06A857B856115710582
:1020200071F04A895B892E853F854217530738F046
:102030000E9496158E859F859D8B8C8B12C00E9469
:102040001D148A859B85998B888B8C859D859B8BA0
:102050008A8B8E859F859D8B8C8B1B861A861D8611
:102060001C861F861E86CE010A960E94450380911B
:102070005E024AE0B80190E00E944A11F801019026
:102080000020E9F73197E01BF10BEC88FD883097D1
:10209000A1F0EE0EFF1EB701CE0140960E94920203
:1020A000882359F0288939898C899D89B801820F44
:1020B000931F0E949615FD8AEC8ABE01605F7F4FD8
:1020C000C8010E944A03A8016D2D892D0E94300984
:1020D000C8010E944503CE0140960E9445038091AD
:1020E0009E01826080939E01CE0146960E94450328
:1020F0006FCC0E943704C090A701D090A801E09057
:10210000A901F090AA01F8EECF0EF3E0DF1EE11C6A
:10211000F11CC616D706E806F90608F008CC64E5F7
:1021200072E0C8010E944A03A80160E080914F025A
:102130000E943009C8010E9445030E943704609341
:10214000A7017093A8018093A9019093AA01EFCBF6
:10215000E8E1F2E0138212828FE191E091838083C3
:1021600080E5848781E085878AE090E0978786878D
:1021700089E090E0918B808B82E090E0938B828B62
:10218000158A148A178A168A118E108E138E128E53
:102190001482158216821782E4E3F2E0138212821F
:1021A00088EE93E0A0E0B0E084839583A683B783B4
:1021B00081E391E09183808364E471E081E692E0C1
:1021C0000E94530364E471E084E592E00E945303AB
:1021D00064E471E087E492E00C9453038F929F9241
:1021E000AF92BF92CF92DF92EF92FF92CF93DF93A5
:1021F000EC01688179818A819B8161157105810576
:10220000910521F464E279ED8BE597E02DE133EF60
:1022100041E050E00E94B91249015A019B01AC0112
:10222000A7EAB1E40E94D8126B017C01ACEEB4EFD6
:10223000A50194010E94E612DC01CB018C0D9D1DCD
:10224000AE1DBF1DB7FF03C00197A109B048888329
:102250009983AA83BB83BC01CD019F77DF91CF9186
:10226000FF90EF90DF90CF90BF90AF909F908F90B6
:1022700008950E94EE10089581E191E00E94EE1011
:10228000089560931101709312018093130190934C
:1022900014010895BB274A3031F4992322F4BDE29A
:1022A000909581959F4F0C945611BB27FB015527A4
:1022B000AA27880F991FAA1FA41710F0A41B8395A3
:1022C0005051B9F7A05DAA3308F0A95DA19300971A
:1022D00079F7B111B1931192CB010C946F11DC011C
:1022E000FC01672F71917723E1F7329704C07C914D
:1022F0006D9370836291AE17BF07C8F308950E9473
:10230000C11108F481E00895E89409C097FB3EF4F8
:1023100090958095709561957F4F8F4F9F4F992332
:10232000A9F0F92F96E9BB279395F69587957795B0
:102330006795B795F111F8CFFAF4BB0F11F460FF70
:102340001BC06F5F7F4F8F4F9F4F16C0882311F0C8
:1023500096E911C0772321F09EE8872F762F05C0DC
:10236000662371F096E8862F70E060E02AF09A9577
:10237000660F771F881FDAF7880F9695879597F96C
:102380000895990F0008550FAA0BE0E8FEEF161606
:102390001706E807F907C0F012161306E407F50759
:1023A00098F0621B730B840B950B39F40A2661F0CD
:1023B000232B242B252B21F408950A2609F4A14070
:1023C000A6958FEF811D811D08950E94F8110C9430
:1023D00069120E945B1238F00E94621220F095236D
:1023E00011F00C9452120C94581211240C949D125A
:1023F0000E947A1270F3959FC1F3950F50E0551F1C
:10240000629FF001729FBB27F00DB11D639FAA2749
:10241000F00DB11DAA1F649F6627B00DA11D661F98
:10242000829F2227B00DA11D621F739FB00DA11DB9
:10243000621F839FA00D611D221F749F3327A00D73
:10244000611D231F849F600D211D822F762F6A2F0F
:1024500011249F5750409AF0F1F088234AF0EE0F74
:10246000FF1FBB1F661F771F881F91505040A9F7A1
:102470009E3F510580F00C9452120C949D125F3FC8
:10248000E4F3983ED4F3869577956795B795F795DD
:10249000E7959F5FC1F7FE2B880F911D9695879555
:1024A00097F9089597F99F6780E870E060E00895D4
:1024B0009FEF80EC089500240A941616170618065C
:1024C0000906089500240A94121613061406050638
:1024D0000895092E0394000C11F4882352F0BB0FC9
:1024E00040F4BF2B11F460FF04C06F5F7F4F8F4F2C
:1024F0009F4F089557FD9058440F551F59F05F3F67
:1025000071F04795880F97FB991F61F09F3F79F015
:1025100087950895121613061406551FF2CF469597
:10252000F1DF08C0161617061806991FF1CF869519
:102530007105610508940895E894BB2766277727FD
:10254000CB0197F90895F999FECF92BD81BDF89A14
:10255000992780B50895262FF999FECF1FBA92BD0D
:1025600081BD20BD0FB6F894FA9AF99A0FBE019674
:102570000895052E97FB1EF400940E94D01257FD7B
:1025800007D00E94221307FC03D04EF40C94D01203
:1025900050954095309521953F4F4F4F5F4F08958F
:1025A00090958095709561957F4F8F4F9F4F0895BF
:1025B0000E944413A59F900DB49F900DA49F800D81
:1025C000911D11240895B7FF0C94D8120E94D812BF
:1025D000821B930B08952F923F924F925F926F92BE
:1025E0007F928F929F92AF92BF92CF92DF92EF92A3
:1025F000FF920F931F93CF93DF93CDB7DEB7CA1B24
:10260000DB0B0FB6F894DEBF0FBECDBF09942A884E
:10261000398848885F846E847D848C849B84AA84F6
:10262000B984C884DF80EE80FD800C811B81AA8183
:10263000B981CE0FD11D0FB6F894DEBF0FBECDBF4E
:10264000ED010895A1E21A2EAA1BBB1BFD010DC0CE
:10265000AA1FBB1FEE1FFF1FA217B307E407F50752
:1026600020F0A21BB30BE40BF50B661F771F881F2E
:10267000991F1A9469F760957095809590959B01C4
:10268000AC01BD01CF010895A29FB001B39FC0016D
:10269000A39F700D811D1124911DB29F700D811D8E
:1026A0001124911D08950E94821288F09F5798F07E
:1026B000B92F9927B751B0F0E1F0660F771F881F47
:1026C000991F1AF0BA95C9F714C0B13091F00E9461
:1026D0009C12B1E008950C949C12672F782F8827E4
:1026E000B85F39F0B93FCCF3869577956795B39588
:1026F000D9F73EF490958095709561957F4F8F4FF7
:102700009F4F0895EE0FFF1F0590F491E02D09945F
:10271000CF93DF938230910510F482E090E0E09156
:102720006902F0916A0220E030E0C0E0D0E030972A
:1027300011F14081518148175907C0F048175907D6
:1027400061F482819381209719F09B838A832BC047
:1027500090936A028093690226C02115310519F011
:102760004217530718F49A01BE01DF01EF010280FE
:10277000F381E02DDCCF2115310509F1281B390B40
:102780002430310590F412968D919C911397611528
:10279000710521F0FB019383828304C090936A0248
:1027A00080936902FD01329644C0FD01E20FF31FE0
:1027B00081939193225031092D933C933AC02091FB
:1027C000670230916802232B41F420911701309168
:1027D000180130936802209367022091150130910F
:1027E00016012115310541F42DB73EB7409119016D
:1027F00050911A01241B350BE0916702F091680299
:10280000E217F307A0F42E1B3F0B2817390778F0C7
:10281000AC014E5F5F4F2417350748F04E0F5F1F26
:1028200050936802409367028193919302C0E0E065
:10283000F0E0CF01DF91CF9108950F931F93CF93D5
:10284000DF93009709F48CC0FC0132971382128247
:102850000091690210916A020115110581F420812D
:102860003181820F931F20916702309168022817EF
:10287000390779F5F0936802E093670271C0D801D7
:1028800040E050E0AE17BF0750F412962D913C91F6
:102890001397AD012115310509F1D901F3CF9D0140
:1028A000DA013383228360817181860F971F82173B
:1028B000930769F4EC0128813981260F371F2E5FB9
:1028C0003F4F318320838A819B8193838283452B71
:1028D00029F4F0936A02E093690242C01396FC93D4
:1028E000EE931297ED01499159919E01240F351FE6
:1028F000E217F30771F480819181840F951F02968E
:1029000011969C938E938281938113969C938E93C0
:102910001297E0E0F0E0D80112968D919C91139708
:10292000009719F0F8018C01F6CF8D919C919801D8
:102930002E5F3F4F820F931F2091670230916802F4
:102940002817390769F4309729F410926A02109217
:10295000690202C013821282109368020093670218
:10296000DF91CF911F910F910895A0E0B0E0EBEBC4
:10297000F4E10C94EF12EC01009721F4CB010E94DA
:102980008813B8C0FC01E60FF71F9C0122503109E3
:10299000E217F30708F4ACC0D9010D911C9111970F
:1029A00006171707B0F00530110508F49FC0C801DD
:1029B00004978617970708F499C002501109061B5F
:1029C000170B019311936D937C93CF010E941D14FB
:1029D0008DC05B01A01AB10A4C01800E911EA0911E
:1029E0006902B0916A0240E050E0E12CF12C1097AE
:1029F00009F44AC0A815B905D1F56D907C901197DE
:102A0000630182E0C80ED11CCA14DB0480F1A3016B
:102A10004A195B096A0182E0C80ED11C1296BC906B
:102A200012971396AC91B5E0CB16D10440F0B28268
:102A3000A38351834083D9016D937C930AC00E5FB9
:102A40001F4FC301800F911FF90191838083EB2DEC
:102A5000FA2FE114F10431F0D7011396FC93EE93B1
:102A6000129744C0F0936A02E09369023FC08D91CF
:102A70009C9111974817590708F4AC017D011296F3
:102A80000D90BC91A02DB3CF809167029091680208
:102A900088159905E1F446175707C8F48091150188
:102AA00090911601009741F48DB79EB7409119019E
:102AB00050911A01841B950BE817F907C8F4F0939D
:102AC0006802E0936702F901718360830FC0CB0154
:102AD0000E9488137C01009759F0A801BE010E9452
:102AE0008415CE010E941D14C70104C0CE0102C08E
:102AF00080E090E0CDB7DEB7EEE00C940B1381E000
:102B000090E0F8940C949D15FB01DC0102C001904B
:102B10000D9241505040D8F70895FB01DC018D9192
:102B2000019080190110D9F3990B0895FB01DC0184
:102B300001900D920020E1F7089510E0C2E6D0E088
:102B400004C0FE010E9482132196C336D107C9F743
:042B5000F894FFCF27
:102B540031343738380035070107011107BB34BB5E
:102B64000A0100000000006B028000000000000960
:102B74000168050D02080157053C050E050000001B
:102B840000DD01AD010D028101A501910182013138
:062B940034373838000060
:00000001FF
